{
  "contractName": "ColdChain",
  "abi": [
    {
      "anonymous": false,
      "inputs": [
        {
          "indexed": false,
          "internalType": "address",
          "name": "entityId",
          "type": "address"
        },
        {
          "indexed": false,
          "internalType": "string",
          "name": "entityRole",
          "type": "string"
        }
      ],
      "name": "AddEntity",
      "type": "event"
    },
    {
      "anonymous": false,
      "inputs": [
        {
          "indexed": false,
          "internalType": "uint256",
          "name": "vaccineBatchId",
          "type": "uint256"
        },
        {
          "indexed": true,
          "internalType": "address",
          "name": "manufacturer",
          "type": "address"
        }
      ],
      "name": "AddVaccineBatch",
      "type": "event"
    },
    {
      "anonymous": false,
      "inputs": [
        {
          "indexed": true,
          "internalType": "address",
          "name": "issuer",
          "type": "address"
        },
        {
          "indexed": true,
          "internalType": "address",
          "name": "prover",
          "type": "address"
        },
        {
          "indexed": false,
          "internalType": "uint256",
          "name": "certificateId",
          "type": "uint256"
        }
      ],
      "name": "IssueCertificate",
      "type": "event"
    },
    {
      "inputs": [],
      "name": "MAX_CERTIFICATIONS",
      "outputs": [
        {
          "internalType": "uint256",
          "name": "",
          "type": "uint256"
        }
      ],
      "stateMutability": "view",
      "type": "function"
    },
    {
      "inputs": [
        {
          "internalType": "uint256",
          "name": "",
          "type": "uint256"
        }
      ],
      "name": "certificateIds",
      "outputs": [
        {
          "internalType": "uint256",
          "name": "",
          "type": "uint256"
        }
      ],
      "stateMutability": "view",
      "type": "function"
    },
    {
      "inputs": [
        {
          "internalType": "uint256",
          "name": "",
          "type": "uint256"
        }
      ],
      "name": "certificates",
      "outputs": [
        {
          "internalType": "uint256",
          "name": "id",
          "type": "uint256"
        },
        {
          "components": [
            {
              "internalType": "address",
              "name": "id",
              "type": "address"
            },
            {
              "internalType": "enum ColdChain.EntityRole",
              "name": "role",
              "type": "uint8"
            },
            {
              "internalType": "uint256[]",
              "name": "certificateIds",
              "type": "uint256[]"
            }
          ],
          "internalType": "struct ColdChain.Entity",
          "name": "issuer",
          "type": "tuple"
        },
        {
          "components": [
            {
              "internalType": "address",
              "name": "id",
              "type": "address"
            },
            {
              "internalType": "enum ColdChain.EntityRole",
              "name": "role",
              "type": "uint8"
            },
            {
              "internalType": "uint256[]",
              "name": "certificateIds",
              "type": "uint256[]"
            }
          ],
          "internalType": "struct ColdChain.Entity",
          "name": "prover",
          "type": "tuple"
        },
        {
          "internalType": "bytes",
          "name": "signature",
          "type": "bytes"
        },
        {
          "internalType": "enum ColdChain.CertificateStatus",
          "name": "status",
          "type": "uint8"
        }
      ],
      "stateMutability": "view",
      "type": "function"
    },
    {
      "inputs": [
        {
          "internalType": "address",
          "name": "",
          "type": "address"
        }
      ],
      "name": "entities",
      "outputs": [
        {
          "internalType": "address",
          "name": "id",
          "type": "address"
        },
        {
          "internalType": "enum ColdChain.EntityRole",
          "name": "role",
          "type": "uint8"
        }
      ],
      "stateMutability": "view",
      "type": "function"
    },
    {
      "inputs": [
        {
          "internalType": "uint256",
          "name": "",
          "type": "uint256"
        }
      ],
      "name": "vaccineBatchIds",
      "outputs": [
        {
          "internalType": "uint256",
          "name": "",
          "type": "uint256"
        }
      ],
      "stateMutability": "view",
      "type": "function"
    },
    {
      "inputs": [
        {
          "internalType": "uint256",
          "name": "",
          "type": "uint256"
        }
      ],
      "name": "vaccineBatches",
      "outputs": [
        {
          "internalType": "uint256",
          "name": "id",
          "type": "uint256"
        },
        {
          "internalType": "string",
          "name": "brand",
          "type": "string"
        },
        {
          "internalType": "address",
          "name": "manufacturer",
          "type": "address"
        }
      ],
      "stateMutability": "view",
      "type": "function"
    },
    {
      "inputs": [
        {
          "internalType": "address",
          "name": "_id",
          "type": "address"
        },
        {
          "internalType": "string",
          "name": "_role",
          "type": "string"
        }
      ],
      "name": "addEntity",
      "outputs": [],
      "stateMutability": "nonpayable",
      "type": "function"
    },
    {
      "inputs": [
        {
          "internalType": "string",
          "name": "brand",
          "type": "string"
        },
        {
          "internalType": "address",
          "name": "manufacturer",
          "type": "address"
        }
      ],
      "name": "addVaccineBatch",
      "outputs": [
        {
          "internalType": "uint256",
          "name": "",
          "type": "uint256"
        }
      ],
      "stateMutability": "nonpayable",
      "type": "function"
    },
    {
      "inputs": [
        {
          "internalType": "address",
          "name": "_issuer",
          "type": "address"
        },
        {
          "internalType": "address",
          "name": "_prover",
          "type": "address"
        },
        {
          "internalType": "string",
          "name": "_status",
          "type": "string"
        },
        {
          "internalType": "uint256",
          "name": "vaccineBatchId",
          "type": "uint256"
        },
        {
          "internalType": "bytes",
          "name": "signature",
          "type": "bytes"
        }
      ],
      "name": "issueCertificate",
      "outputs": [
        {
          "internalType": "uint256",
          "name": "",
          "type": "uint256"
        }
      ],
      "stateMutability": "nonpayable",
      "type": "function"
    },
    {
      "inputs": [
        {
          "internalType": "bytes32",
          "name": "message",
          "type": "bytes32"
        },
        {
          "internalType": "uint256",
          "name": "id",
          "type": "uint256"
        },
        {
          "internalType": "address",
          "name": "issuer",
          "type": "address"
        }
      ],
      "name": "isMatchingSignature",
      "outputs": [
        {
          "internalType": "bool",
          "name": "",
          "type": "bool"
        }
      ],
      "stateMutability": "view",
      "type": "function"
    }
  ],
  "bytecode": "0x608060405234801561001057600080fd5b5061295d806100206000396000f3fe608060405234801561001057600080fd5b506004361061009e5760003560e01c8063663b3e2211610066578063663b3e22146101845780637aefaf39146101b8578063b5bad46d146101e8578063c8d8184b14610204578063fc79b0a9146102345761009e565b806303a692b9146100a35780630f9c774d146100d55780631d8ee48a1461010557806345194c07146101365780634851a01d14610166575b600080fd5b6100bd60048036038101906100b891906119cf565b610264565b6040516100cc93929190611ae5565b60405180910390f35b6100ef60048036038101906100ea91906119cf565b610336565b6040516100fc9190611b23565b60405180910390f35b61011f600480360381019061011a9190611b6a565b61035a565b60405161012d929190611c0e565b60405180910390f35b610150600480360381019061014b9190611c6d565b6103ab565b60405161015d9190611cdb565b60405180910390f35b61016e610733565b60405161017b9190611b23565b60405180910390f35b61019e600480360381019061019991906119cf565b610738565b6040516101af959493929190611ebf565b60405180910390f35b6101d260048036038101906101cd91906119cf565b6109e9565b6040516101df9190611b23565b60405180910390f35b61020260048036038101906101fd919061205c565b610a0d565b005b61021e60048036038101906102199190612159565b610bc6565b60405161022b9190611b23565b60405180910390f35b61024e6004803603810190610249919061220c565b611282565b60405161025b9190611b23565b60405180910390f35b600260205280600052604060002060009150905080600001549080600101805461028d90612297565b80601f01602080910402602001604051908101604052809291908181526020018280546102b990612297565b80156103065780601f106102db57610100808354040283529160200191610306565b820191906000526020600020905b8154815290600101906020018083116102e957829003601f168201915b5050505050908060020160009054906101000a900473ffffffffffffffffffffffffffffffffffffffff16905083565b6000818154811061034657600080fd5b906000526020600020016000915090505481565b60046020528060005260406000206000915090508060000160009054906101000a900473ffffffffffffffffffffffffffffffffffffffff16908060000160149054906101000a900460ff16905082565b600080600360008581526020019081526020016000206040518060a001604052908160008201548152602001600182016040518060600160405290816000820160009054906101000a900473ffffffffffffffffffffffffffffffffffffffff1673ffffffffffffffffffffffffffffffffffffffff1673ffffffffffffffffffffffffffffffffffffffff1681526020016000820160149054906101000a900460ff16600281111561046157610460611b97565b5b600281111561047357610472611b97565b5b8152602001600182018054806020026020016040519081016040528092919081815260200182805480156104c657602002820191906000526020600020905b8154815260200190600101908083116104b2575b5050505050815250508152602001600382016040518060600160405290816000820160009054906101000a900473ffffffffffffffffffffffffffffffffffffffff1673ffffffffffffffffffffffffffffffffffffffff1673ffffffffffffffffffffffffffffffffffffffff1681526020016000820160149054906101000a900460ff16600281111561055e5761055d611b97565b5b60028111156105705761056f611b97565b5b8152602001600182018054806020026020016040519081016040528092919081815260200182805480156105c357602002820191906000526020600020905b8154815260200190600101908083116105af575b50505050508152505081526020016005820180546105e090612297565b80601f016020809104026020016040519081016040528092919081815260200182805461060c90612297565b80156106595780601f1061062e57610100808354040283529160200191610659565b820191906000526020600020905b81548152906001019060200180831161063c57829003601f168201915b505050505081526020016006820160009054906101000a900460ff16600481111561068757610686611b97565b5b600481111561069957610698611b97565b5b8152505090508273ffffffffffffffffffffffffffffffffffffffff1681602001516000015173ffffffffffffffffffffffffffffffffffffffff16146106df57600080fd5b60006106ef86836060015161143b565b905081602001516000015173ffffffffffffffffffffffffffffffffffffffff168173ffffffffffffffffffffffffffffffffffffffff1614925050509392505050565b600281565b6003602052806000526040600020600091509050806000015490806001016040518060600160405290816000820160009054906101000a900473ffffffffffffffffffffffffffffffffffffffff1673ffffffffffffffffffffffffffffffffffffffff1673ffffffffffffffffffffffffffffffffffffffff1681526020016000820160149054906101000a900460ff1660028111156107dc576107db611b97565b5b60028111156107ee576107ed611b97565b5b81526020016001820180548060200260200160405190810160405280929190818152602001828054801561084157602002820191906000526020600020905b81548152602001906001019080831161082d575b50505050508152505090806003016040518060600160405290816000820160009054906101000a900473ffffffffffffffffffffffffffffffffffffffff1673ffffffffffffffffffffffffffffffffffffffff1673ffffffffffffffffffffffffffffffffffffffff1681526020016000820160149054906101000a900460ff1660028111156108d5576108d4611b97565b5b60028111156108e7576108e6611b97565b5b81526020016001820180548060200260200160405190810160405280929190818152602001828054801561093a57602002820191906000526020600020905b815481526020019060010190808311610926575b5050505050815250509080600501805461095390612297565b80601f016020809104026020016040519081016040528092919081815260200182805461097f90612297565b80156109cc5780601f106109a1576101008083540402835291602001916109cc565b820191906000526020600020905b8154815290600101906020018083116109af57829003601f168201915b5050505050908060060160009054906101000a900460ff16905085565b600181815481106109f957600080fd5b906000526020600020016000915090505481565b6000610a1882611513565b90506000600267ffffffffffffffff811115610a3757610a36611f31565b5b604051908082528060200260200182016040528015610a655781602001602082028036833780820191505090505b509050600060405180606001604052808673ffffffffffffffffffffffffffffffffffffffff168152602001846002811115610aa457610aa3611b97565b5b815260200183815250905080600460008773ffffffffffffffffffffffffffffffffffffffff1673ffffffffffffffffffffffffffffffffffffffff16815260200190815260200160002060008201518160000160006101000a81548173ffffffffffffffffffffffffffffffffffffffff021916908373ffffffffffffffffffffffffffffffffffffffff16021790555060208201518160000160146101000a81548160ff02191690836002811115610b6157610b60611b97565b5b02179055506040820151816001019080519060200190610b8292919061180f565b509050507ff5a37da00f0e4029ee2682b1919ee55d7e6f9d7492237aad9bd1aea7d53d48748585604051610bb79291906122c8565b60405180910390a15050505050565b6000806002811115610bdb57610bda611b97565b5b600460008873ffffffffffffffffffffffffffffffffffffffff1673ffffffffffffffffffffffffffffffffffffffff16815260200190815260200160002060000160149054906101000a900460ff166002811115610c3d57610c3c611b97565b5b14610c7d576040517f08c379a0000000000000000000000000000000000000000000000000000000008152600401610c7490612344565b60405180910390fd5b60016002811115610c9157610c90611b97565b5b600460008773ffffffffffffffffffffffffffffffffffffffff1673ffffffffffffffffffffffffffffffffffffffff16815260200190815260200160002060000160149054906101000a900460ff166002811115610cf357610cf2611b97565b5b14610d33576040517f08c379a0000000000000000000000000000000000000000000000000000000008152600401610d2a906123b0565b60405180910390fd5b6000610d3e85611636565b905060008080549050905060006040518060a00160405280838152602001600460008c73ffffffffffffffffffffffffffffffffffffffff1673ffffffffffffffffffffffffffffffffffffffff1681526020019081526020016000206040518060600160405290816000820160009054906101000a900473ffffffffffffffffffffffffffffffffffffffff1673ffffffffffffffffffffffffffffffffffffffff1673ffffffffffffffffffffffffffffffffffffffff1681526020016000820160149054906101000a900460ff166002811115610e2157610e20611b97565b5b6002811115610e3357610e32611b97565b5b815260200160018201805480602002602001604051908101604052809291908181526020018280548015610e8657602002820191906000526020600020905b815481526020019060010190808311610e72575b5050505050815250508152602001600460008b73ffffffffffffffffffffffffffffffffffffffff1673ffffffffffffffffffffffffffffffffffffffff1681526020019081526020016000206040518060600160405290816000820160009054906101000a900473ffffffffffffffffffffffffffffffffffffffff1673ffffffffffffffffffffffffffffffffffffffff1673ffffffffffffffffffffffffffffffffffffffff1681526020016000820160149054906101000a900460ff166002811115610f5957610f58611b97565b5b6002811115610f6b57610f6a611b97565b5b815260200160018201805480602002602001604051908101604052809291908181526020018280548015610fbe57602002820191906000526020600020905b815481526020019060010190808311610faa575b5050505050815250508152602001868152602001846004811115610fe557610fe4611b97565b5b8152509050600082908060018154018082558091505060019003906000526020600020016000909190919091505580600360008481526020019081526020016000206000820151816000015560208201518160010160008201518160000160006101000a81548173ffffffffffffffffffffffffffffffffffffffff021916908373ffffffffffffffffffffffffffffffffffffffff16021790555060208201518160000160146101000a81548160ff021916908360028111156110ac576110ab611b97565b5b021790555060408201518160010190805190602001906110cd92919061180f565b50505060408201518160030160008201518160000160006101000a81548173ffffffffffffffffffffffffffffffffffffffff021916908373ffffffffffffffffffffffffffffffffffffffff16021790555060208201518160000160146101000a81548160ff0219169083600281111561114b5761114a611b97565b5b0217905550604082015181600101908051906020019061116c92919061180f565b505050606082015181600501908051906020019061118b92919061185c565b5060808201518160060160006101000a81548160ff021916908360048111156111b7576111b6611b97565b5b0217905550905050600060026000888152602001908152602001600020905082816003018560048111156111ee576111ed611b97565b5b815481106111ff576111fe6123d0565b5b90600052602060002001819055508873ffffffffffffffffffffffffffffffffffffffff168a73ffffffffffffffffffffffffffffffffffffffff167fc9e3e855764ebb21ed83dcdf8ed5e1398c752d6446308e092c28a84a77a199bd8560405161126a9190611b23565b60405180910390a38294505050505095945050505050565b60008060018054905090506000600267ffffffffffffffff8111156112aa576112a9611f31565b5b6040519080825280602002602001820160405280156112d85781602001602082028036833780820191505090505b509050600060405180608001604052808481526020018781526020018673ffffffffffffffffffffffffffffffffffffffff16815260200183815250905080600260008581526020019081526020016000206000820151816000015560208201518160010190805190602001906113509291906118e2565b5060408201518160020160006101000a81548173ffffffffffffffffffffffffffffffffffffffff021916908373ffffffffffffffffffffffffffffffffffffffff16021790555060608201518160030190805190602001906113b492919061180f565b5090505060018390806001815401808255809150506001900390600052602060002001600090919091909150558473ffffffffffffffffffffffffffffffffffffffff167fe85391abb5e51659c581dd95107048251657ee66755655cc08c9c0ec3a0a9139846040516114279190611b23565b60405180910390a282935050505092915050565b60008060008061144a856117dd565b92509250925060006040518060400160405280601c81526020017f19457468657265756d205369676e6564204d6573736167653a0a33320000000081525090506000818860405160200161149f92919061245c565b604051602081830303815290604052805190602001209050600181868686604051600081526020016040526040516114da94939291906124af565b6020604051602081039080840390855afa1580156114fc573d6000803e3d6000fd5b505050602060405103519550505050505092915050565b600080826040516020016115279190612530565b604051602081830303815290604052805190602001209050600060405160200161155090612593565b6040516020818303038152906040528051906020012090506000604051602001611579906125f4565b60405160208183030381529060405280519060200120905060006040516020016115a290612655565b6040516020818303038152906040528051906020012090508284036115ce576000945050505050611631565b8184036115e2576001945050505050611631565b8084036115f6576002945050505050611631565b6040517f08c379a0000000000000000000000000000000000000000000000000000000008152600401611628906126b6565b60405180910390fd5b919050565b6000808260405160200161164a9190612530565b604051602081830303815290604052805190602001209050600060405160200161167390612722565b604051602081830303815290604052805190602001209050600060405160200161169c90612783565b60405160208183030381529060405280519060200120905060006040516020016116c5906127e4565b60405160208183030381529060405280519060200120905060006040516020016116ee90612845565b6040516020818303038152906040528051906020012090506000604051602001611717906128a6565b60405160208183030381529060405280519060200120905084860361174557600096505050505050506117d8565b83860361175b57600196505050505050506117d8565b82860361177157600296505050505050506117d8565b81860361178757600396505050505050506117d8565b80860361179d57600496505050505050506117d8565b6040517f08c379a00000000000000000000000000000000000000000000000000000000081526004016117cf90612907565b60405180910390fd5b919050565b600080600060418451146117f057600080fd5b6020840151915060408401519050606084015160001a92509193909250565b82805482825590600052602060002090810192821561184b579160200282015b8281111561184a57825182559160200191906001019061182f565b5b5090506118589190611968565b5090565b82805461186890612297565b90600052602060002090601f01602090048101928261188a57600085556118d1565b82601f106118a357805160ff19168380011785556118d1565b828001600101855582156118d1579182015b828111156118d05782518255916020019190600101906118b5565b5b5090506118de9190611968565b5090565b8280546118ee90612297565b90600052602060002090601f0160209004810192826119105760008555611957565b82601f1061192957805160ff1916838001178555611957565b82800160010185558215611957579182015b8281111561195657825182559160200191906001019061193b565b5b5090506119649190611968565b5090565b5b80821115611981576000816000905550600101611969565b5090565b6000604051905090565b600080fd5b600080fd5b6000819050919050565b6119ac81611999565b81146119b757600080fd5b50565b6000813590506119c9816119a3565b92915050565b6000602082840312156119e5576119e461198f565b5b60006119f3848285016119ba565b91505092915050565b611a0581611999565b82525050565b600081519050919050565b600082825260208201905092915050565b60005b83811015611a45578082015181840152602081019050611a2a565b83811115611a54576000848401525b50505050565b6000601f19601f8301169050919050565b6000611a7682611a0b565b611a808185611a16565b9350611a90818560208601611a27565b611a9981611a5a565b840191505092915050565b600073ffffffffffffffffffffffffffffffffffffffff82169050919050565b6000611acf82611aa4565b9050919050565b611adf81611ac4565b82525050565b6000606082019050611afa60008301866119fc565b8181036020830152611b0c8185611a6b565b9050611b1b6040830184611ad6565b949350505050565b6000602082019050611b3860008301846119fc565b92915050565b611b4781611ac4565b8114611b5257600080fd5b50565b600081359050611b6481611b3e565b92915050565b600060208284031215611b8057611b7f61198f565b5b6000611b8e84828501611b55565b91505092915050565b7f4e487b7100000000000000000000000000000000000000000000000000000000600052602160045260246000fd5b60038110611bd757611bd6611b97565b5b50565b6000819050611be882611bc6565b919050565b6000611bf882611bda565b9050919050565b611c0881611bed565b82525050565b6000604082019050611c236000830185611ad6565b611c306020830184611bff565b9392505050565b6000819050919050565b611c4a81611c37565b8114611c5557600080fd5b50565b600081359050611c6781611c41565b92915050565b600080600060608486031215611c8657611c8561198f565b5b6000611c9486828701611c58565b9350506020611ca5868287016119ba565b9250506040611cb686828701611b55565b9150509250925092565b60008115159050919050565b611cd581611cc0565b82525050565b6000602082019050611cf06000830184611ccc565b92915050565b611cff81611ac4565b82525050565b611d0e81611bed565b82525050565b600081519050919050565b600082825260208201905092915050565b6000819050602082019050919050565b611d4981611999565b82525050565b6000611d5b8383611d40565b60208301905092915050565b6000602082019050919050565b6000611d7f82611d14565b611d898185611d1f565b9350611d9483611d30565b8060005b83811015611dc5578151611dac8882611d4f565b9750611db783611d67565b925050600181019050611d98565b5085935050505092915050565b6000606083016000830151611dea6000860182611cf6565b506020830151611dfd6020860182611d05565b5060408301518482036040860152611e158282611d74565b9150508091505092915050565b600081519050919050565b600082825260208201905092915050565b6000611e4982611e22565b611e538185611e2d565b9350611e63818560208601611a27565b611e6c81611a5a565b840191505092915050565b60058110611e8857611e87611b97565b5b50565b6000819050611e9982611e77565b919050565b6000611ea982611e8b565b9050919050565b611eb981611e9e565b82525050565b600060a082019050611ed460008301886119fc565b8181036020830152611ee68187611dd2565b90508181036040830152611efa8186611dd2565b90508181036060830152611f0e8185611e3e565b9050611f1d6080830184611eb0565b9695505050505050565b600080fd5b600080fd5b7f4e487b7100000000000000000000000000000000000000000000000000000000600052604160045260246000fd5b611f6982611a5a565b810181811067ffffffffffffffff82111715611f8857611f87611f31565b5b80604052505050565b6000611f9b611985565b9050611fa78282611f60565b919050565b600067ffffffffffffffff821115611fc757611fc6611f31565b5b611fd082611a5a565b9050602081019050919050565b82818337600083830152505050565b6000611fff611ffa84611fac565b611f91565b90508281526020810184848401111561201b5761201a611f2c565b5b612026848285611fdd565b509392505050565b600082601f83011261204357612042611f27565b5b8135612053848260208601611fec565b91505092915050565b600080604083850312156120735761207261198f565b5b600061208185828601611b55565b925050602083013567ffffffffffffffff8111156120a2576120a1611994565b5b6120ae8582860161202e565b9150509250929050565b600067ffffffffffffffff8211156120d3576120d2611f31565b5b6120dc82611a5a565b9050602081019050919050565b60006120fc6120f7846120b8565b611f91565b90508281526020810184848401111561211857612117611f2c565b5b612123848285611fdd565b509392505050565b600082601f8301126121405761213f611f27565b5b81356121508482602086016120e9565b91505092915050565b600080600080600060a086880312156121755761217461198f565b5b600061218388828901611b55565b955050602061219488828901611b55565b945050604086013567ffffffffffffffff8111156121b5576121b4611994565b5b6121c18882890161202e565b93505060606121d2888289016119ba565b925050608086013567ffffffffffffffff8111156121f3576121f2611994565b5b6121ff8882890161212b565b9150509295509295909350565b600080604083850312156122235761222261198f565b5b600083013567ffffffffffffffff81111561224157612240611994565b5b61224d8582860161202e565b925050602061225e85828601611b55565b9150509250929050565b7f4e487b7100000000000000000000000000000000000000000000000000000000600052602260045260246000fd5b600060028204905060018216806122af57607f821691505b6020821081036122c2576122c1612268565b5b50919050565b60006040820190506122dd6000830185611ad6565b81810360208301526122ef8184611a6b565b90509392505050565b7f497373756572206e6f7420617574686f72697a65640000000000000000000000600082015250565b600061232e601583611a16565b9150612339826122f8565b602082019050919050565b6000602082019050818103600083015261235d81612321565b9050919050565b7f50726f766572206e6f7420617574686f72697a65640000000000000000000000600082015250565b600061239a601583611a16565b91506123a582612364565b602082019050919050565b600060208201905081810360008301526123c98161238d565b9050919050565b7f4e487b7100000000000000000000000000000000000000000000000000000000600052603260045260246000fd5b600081905092915050565b600061241582611e22565b61241f81856123ff565b935061242f818560208601611a27565b80840191505092915050565b6000819050919050565b61245661245182611c37565b61243b565b82525050565b6000612468828561240a565b91506124748284612445565b6020820191508190509392505050565b61248d81611c37565b82525050565b600060ff82169050919050565b6124a981612493565b82525050565b60006080820190506124c46000830187612484565b6124d160208301866124a0565b6124de6040830185612484565b6124eb6060830184612484565b95945050505050565b600081905092915050565b600061250a82611a0b565b61251481856124f4565b9350612524818560208601611a27565b80840191505092915050565b600061253c82846124ff565b915081905092915050565b7f4953535545520000000000000000000000000000000000000000000000000000600082015250565b600061257d6006836124f4565b915061258882612547565b600682019050919050565b600061259e82612570565b9150819050919050565b7f50524f5645520000000000000000000000000000000000000000000000000000600082015250565b60006125de6006836124f4565b91506125e9826125a8565b600682019050919050565b60006125ff826125d1565b9150819050919050565b7f5645524946494552000000000000000000000000000000000000000000000000600082015250565b600061263f6008836124f4565b915061264a82612609565b600882019050919050565b600061266082612632565b9150819050919050565b7f696e76616c696420656e7469747920726f6c6500000000000000000000000000600082015250565b60006126a0601383611a16565b91506126ab8261266a565b602082019050919050565b600060208201905081810360008301526126cf81612693565b9050919050565b7f4d414e5546414354555245440000000000000000000000000000000000000000600082015250565b600061270c600c836124f4565b9150612717826126d6565b600c82019050919050565b600061272d826126ff565b9150819050919050565b7f44454c49564552494e475f494e5445524e4154494f4e414c0000000000000000600082015250565b600061276d6018836124f4565b915061277882612737565b601882019050919050565b600061278e82612760565b9150819050919050565b7f53544f5245440000000000000000000000000000000000000000000000000000600082015250565b60006127ce6006836124f4565b91506127d982612798565b600682019050919050565b60006127ef826127c1565b9150819050919050565b7f44454c49564552494e475f4c4f43414c00000000000000000000000000000000600082015250565b600061282f6010836124f4565b915061283a826127f9565b601082019050919050565b600061285082612822565b9150819050919050565b7f44454c4956455245440000000000000000000000000000000000000000000000600082015250565b60006128906009836124f4565b915061289b8261285a565b600982019050919050565b60006128b182612883565b9150819050919050565b7f696e76616c696420636572746966696361746520737461747573000000000000600082015250565b60006128f1601a83611a16565b91506128fc826128bb565b602082019050919050565b60006020820190508181036000830152612920816128e4565b905091905056fea26469706673582212207817732b1258192f9aebc77480545b5e52831c16ca83d8277f2b06b046e1a9c764736f6c634300080d0033",
  "immutableReferences": {},
  "source": "// SPDX-License-Identifier: MIT\r\npragma solidity >=0.7.0 <0.9.0;\r\n\r\nlibrary CryptoSuite {\r\n    function splitSignature(\r\n        bytes memory sig\r\n    ) internal pure returns (uint8 v, bytes32 r, bytes32 s) {\r\n        require(sig.length == 65);\r\n\r\n        assembly {\r\n            r := mload(add(sig, 32))\r\n            s := mload(add(sig, 64))\r\n            v := byte(0, mload(add(sig, 96)))\r\n        }\r\n\r\n        return (v, r, s);\r\n    }\r\n\r\n    function recoverSigner(\r\n        bytes32 message,\r\n        bytes memory sig\r\n    ) internal pure returns (address) {\r\n        (uint8 v, bytes32 r, bytes32 s) = splitSignature(sig);\r\n        bytes memory prefix = \"\\x19Ethereum Signed Message:\\n32\";\r\n        bytes32 prefixedHash = keccak256(abi.encodePacked(prefix, message));\r\n        return ecrecover(prefixedHash, v, r, s);\r\n    }\r\n}\r\n\r\ncontract ColdChain {\r\n    enum CertificateStatus {\r\n        MANUFACTURED,\r\n        DELIVERING_INTERNATIONAL,\r\n        STORED,\r\n        DELIVERING_LOCAL,\r\n        DELIVERED\r\n    }\r\n\r\n    struct Certificate {\r\n        uint256 id;\r\n        Entity issuer;\r\n        Entity prover;\r\n        bytes signature;\r\n        CertificateStatus status;\r\n    }\r\n\r\n    enum EntityRole {\r\n        ISSUER,\r\n        PROVER,\r\n        VERIFIER\r\n    }\r\n\r\n    struct Entity {\r\n        address id;\r\n        EntityRole role;\r\n        uint[] certificateIds;\r\n    }\r\n\r\n    struct VaccineBatch {\r\n        uint256 id;\r\n        string brand;\r\n        address manufacturer;\r\n        uint[] certificateIds;\r\n    }\r\n\r\n    uint256 public constant MAX_CERTIFICATIONS = 2;\r\n\r\n    uint256[] public certificateIds;\r\n    uint256[] public vaccineBatchIds;\r\n\r\n    mapping(uint256 => VaccineBatch) public vaccineBatches;\r\n    mapping(uint256 => Certificate) public certificates;\r\n    mapping(address => Entity) public entities;\r\n\r\n    event AddEntity(address entityId, string entityRole);\r\n    event AddVaccineBatch(uint256 vaccineBatchId, address indexed manufacturer);\r\n    event IssueCertificate(\r\n        address indexed issuer,\r\n        address indexed prover,\r\n        uint256 certificateId\r\n    );\r\n\r\n    function addEntity(address _id, string memory _role) public {\r\n        EntityRole role = unmarshalRole(_role);\r\n        uint[] memory _certificateIds = new uint[](MAX_CERTIFICATIONS);\r\n        Entity memory entity = Entity(_id, role, _certificateIds);\r\n        entities[_id] = entity;\r\n        emit AddEntity(_id, _role);\r\n    }\r\n\r\n    function unmarshalRole(\r\n        string memory _role\r\n    ) private pure returns (EntityRole) {\r\n        bytes32 encodedRole = keccak256(abi.encodePacked(_role));\r\n        bytes32 encodedRole0 = keccak256(abi.encodePacked(\"ISSUER\"));\r\n        bytes32 encodedRole1 = keccak256(abi.encodePacked(\"PROVER\"));\r\n        bytes32 encodedRole2 = keccak256(abi.encodePacked(\"VERIFIER\"));\r\n\r\n        if (encodedRole == encodedRole0) return EntityRole.ISSUER;\r\n        else if (encodedRole == encodedRole1) return EntityRole.PROVER;\r\n        else if (encodedRole == encodedRole2) return EntityRole.VERIFIER;\r\n\r\n        revert(\"invalid entity role\");\r\n    }\r\n\r\n    function addVaccineBatch(\r\n        string memory brand,\r\n        address manufacturer\r\n    ) public returns (uint256) {\r\n        uint256 id = vaccineBatchIds.length;\r\n        uint[] memory _certificateIds = new uint[](MAX_CERTIFICATIONS);\r\n        VaccineBatch memory batch = VaccineBatch(\r\n            id,\r\n            brand,\r\n            manufacturer,\r\n            _certificateIds\r\n        );\r\n\r\n        vaccineBatches[id] = batch;\r\n        vaccineBatchIds.push(id);\r\n\r\n        emit AddVaccineBatch(id, manufacturer);\r\n        return id;\r\n    }\r\n\r\n    function issueCertificate(\r\n        address _issuer,\r\n        address _prover,\r\n        string memory _status,\r\n        uint256 vaccineBatchId,\r\n        bytes memory signature\r\n    ) public returns (uint256) {\r\n        require(\r\n            entities[_issuer].role == EntityRole.ISSUER,\r\n            \"Issuer not authorized\"\r\n        );\r\n        require(\r\n            entities[_prover].role == EntityRole.PROVER,\r\n            \"Prover not authorized\"\r\n        );\r\n\r\n        CertificateStatus status = unmarshalStatus(_status);\r\n\r\n        uint256 id = certificateIds.length;\r\n        Certificate memory certificate = Certificate(\r\n            id,\r\n            entities[_issuer],\r\n            entities[_prover],\r\n            signature,\r\n            status\r\n        );\r\n\r\n        certificateIds.push(id);\r\n        certificates[id] = certificate;\r\n\r\n        VaccineBatch storage batch = vaccineBatches[vaccineBatchId];\r\n        batch.certificateIds[uint256(status)] = id;\r\n\r\n        emit IssueCertificate(_issuer, _prover, id);\r\n\r\n        return id;\r\n    }\r\n\r\n    function unmarshalStatus(\r\n        string memory _status\r\n    ) private pure returns (CertificateStatus) {\r\n        bytes32 encodedStatus = keccak256(abi.encodePacked(_status));\r\n        bytes32 encodedStatus0 = keccak256(abi.encodePacked(\"MANUFACTURED\"));\r\n        bytes32 encodedStatus1 = keccak256(\r\n            abi.encodePacked(\"DELIVERING_INTERNATIONAL\")\r\n        );\r\n        bytes32 encodedStatus2 = keccak256(abi.encodePacked(\"STORED\"));\r\n        bytes32 encodedStatus3 = keccak256(\r\n            abi.encodePacked(\"DELIVERING_LOCAL\")\r\n        );\r\n        bytes32 encodedStatus4 = keccak256(abi.encodePacked(\"DELIVERED\"));\r\n\r\n        if (encodedStatus == encodedStatus0)\r\n            return CertificateStatus.MANUFACTURED;\r\n        else if (encodedStatus == encodedStatus1)\r\n            return CertificateStatus.DELIVERING_INTERNATIONAL;\r\n        else if (encodedStatus == encodedStatus2)\r\n            return CertificateStatus.STORED;\r\n        else if (encodedStatus == encodedStatus3)\r\n            return CertificateStatus.DELIVERING_LOCAL;\r\n        else if (encodedStatus == encodedStatus4)\r\n            return CertificateStatus.DELIVERED;\r\n\r\n        revert(\"invalid certificate status\");\r\n    }\r\n\r\n    function isMatchingSignature(\r\n        bytes32 message,\r\n        uint256 id,\r\n        address issuer\r\n    ) public view returns (bool) {\r\n        Certificate memory cert = certificates[id];\r\n        require(cert.issuer.id == issuer);\r\n\r\n        address recoveredSigner = CryptoSuite.recoverSigner(\r\n            message,\r\n            cert.signature\r\n        );\r\n        return recoveredSigner == cert.issuer.id;\r\n    }\r\n}\r\n",
  "sourcePath": "C:\\Users\\pjsah\\Desktop\\ColdChain\\contracts\\ColdChain.sol",
  "compiler": {
    "name": "solc",
    "version": "0.8.13+commit.abaa5c0e.Emscripten.clang"
  },
  "schemaVersion": "3.4.16",
  "updatedAt": "2024-08-09T14:32:22.185Z",
  "devdoc": {
    "kind": "dev",
    "methods": {},
    "version": 1
  },
  "userdoc": {
    "kind": "user",
    "methods": {},
    "version": 1
  }
}